{
  "contractName": "Student",
  "abi": [
    {
      "inputs": [],
      "stateMutability": "nonpayable",
      "type": "constructor"
    },
    {
      "inputs": [],
      "name": "access_request",
      "outputs": [
        {
          "internalType": "string",
          "name": "",
          "type": "string"
        }
      ],
      "stateMutability": "view",
      "type": "function",
      "constant": true
    },
    {
      "inputs": [],
      "name": "credential_data",
      "outputs": [
        {
          "internalType": "string",
          "name": "",
          "type": "string"
        }
      ],
      "stateMutability": "view",
      "type": "function",
      "constant": true
    },
    {
      "inputs": [],
      "name": "student_data",
      "outputs": [
        {
          "internalType": "string",
          "name": "",
          "type": "string"
        }
      ],
      "stateMutability": "view",
      "type": "function",
      "constant": true
    },
    {
      "inputs": [],
      "name": "university_company",
      "outputs": [
        {
          "internalType": "string",
          "name": "",
          "type": "string"
        }
      ],
      "stateMutability": "view",
      "type": "function",
      "constant": true
    },
    {
      "inputs": [
        {
          "internalType": "string",
          "name": "d",
          "type": "string"
        }
      ],
      "name": "addUniversityCompany",
      "outputs": [],
      "stateMutability": "nonpayable",
      "type": "function"
    },
    {
      "inputs": [],
      "name": "getUniversityCompany",
      "outputs": [
        {
          "internalType": "string",
          "name": "",
          "type": "string"
        }
      ],
      "stateMutability": "view",
      "type": "function",
      "constant": true
    },
    {
      "inputs": [
        {
          "internalType": "string",
          "name": "d",
          "type": "string"
        }
      ],
      "name": "enrollStudent",
      "outputs": [],
      "stateMutability": "nonpayable",
      "type": "function"
    },
    {
      "inputs": [],
      "name": "getStudent",
      "outputs": [
        {
          "internalType": "string",
          "name": "",
          "type": "string"
        }
      ],
      "stateMutability": "view",
      "type": "function",
      "constant": true
    },
    {
      "inputs": [
        {
          "internalType": "string",
          "name": "d",
          "type": "string"
        }
      ],
      "name": "setCredentialData",
      "outputs": [],
      "stateMutability": "nonpayable",
      "type": "function"
    },
    {
      "inputs": [],
      "name": "getCredential",
      "outputs": [
        {
          "internalType": "string",
          "name": "",
          "type": "string"
        }
      ],
      "stateMutability": "view",
      "type": "function",
      "constant": true
    },
    {
      "inputs": [
        {
          "internalType": "string",
          "name": "d",
          "type": "string"
        }
      ],
      "name": "setAccessRequest",
      "outputs": [],
      "stateMutability": "nonpayable",
      "type": "function"
    },
    {
      "inputs": [],
      "name": "getAccess",
      "outputs": [
        {
          "internalType": "string",
          "name": "",
          "type": "string"
        }
      ],
      "stateMutability": "view",
      "type": "function",
      "constant": true
    }
  ],
  "bytecode": "0x60806040523480156200001157600080fd5b50604051806020016040528060008152506000908051906020019062000039929190620000b8565b50604051806020016040528060008152506001908051906020019062000061929190620000b8565b50604051806020016040528060008152506002908051906020019062000089929190620000b8565b506040518060200160405280600081525060039080519060200190620000b1929190620000b8565b50620001cd565b828054620000c69062000197565b90600052602060002090601f016020900481019282620000ea576000855562000136565b82601f106200010557805160ff191683800117855562000136565b8280016001018555821562000136579182015b828111156200013557825182559160200191906001019062000118565b5b50905062000145919062000149565b5090565b5b80821115620001645760008160009055506001016200014a565b5090565b7f4e487b7100000000000000000000000000000000000000000000000000000000600052602260045260246000fd5b60006002820490506001821680620001b057607f821691505b60208210811415620001c757620001c662000168565b5b50919050565b610a8880620001dd6000396000f3fe608060405234801561001057600080fd5b50600436106100b45760003560e01c80637cff8aba116100715780637cff8aba1461016757806383c175c8146101835780639291f507146101a1578063af88d9e6146101bf578063b439548d146101dd578063f7ca8431146101fb576100b4565b806310d1d4fe146100b957806334c2d17e146100d5578063542b88a9146100f15780635f72c7851461010f57806366b6e0ce1461012d57806376731c0e1461014b575b600080fd5b6100d360048036038101906100ce91906108fe565b610219565b005b6100ef60048036038101906100ea91906108fe565b610233565b005b6100f961024d565b60405161010691906109cf565b60405180910390f35b6101176102db565b60405161012491906109cf565b60405180910390f35b610135610369565b60405161014291906109cf565b60405180910390f35b610165600480360381019061016091906108fe565b6103fb565b005b610181600480360381019061017c91906108fe565b610415565b005b61018b61042f565b60405161019891906109cf565b60405180910390f35b6101a96104c1565b6040516101b691906109cf565b60405180910390f35b6101c761054f565b6040516101d491906109cf565b60405180910390f35b6101e56105dd565b6040516101f291906109cf565b60405180910390f35b61020361066f565b60405161021091906109cf565b60405180910390f35b806001908051906020019061022f929190610701565b5050565b8060009080519060200190610249929190610701565b5050565b6000805461025a90610a20565b80601f016020809104026020016040519081016040528092919081815260200182805461028690610a20565b80156102d35780601f106102a8576101008083540402835291602001916102d3565b820191906000526020600020905b8154815290600101906020018083116102b657829003601f168201915b505050505081565b600380546102e890610a20565b80601f016020809104026020016040519081016040528092919081815260200182805461031490610a20565b80156103615780601f1061033657610100808354040283529160200191610361565b820191906000526020600020905b81548152906001019060200180831161034457829003601f168201915b505050505081565b60606003805461037890610a20565b80601f01602080910402602001604051908101604052809291908181526020018280546103a490610a20565b80156103f15780601f106103c6576101008083540402835291602001916103f1565b820191906000526020600020905b8154815290600101906020018083116103d457829003601f168201915b5050505050905090565b8060029080519060200190610411929190610701565b5050565b806003908051906020019061042b929190610701565b5050565b60606001805461043e90610a20565b80601f016020809104026020016040519081016040528092919081815260200182805461046a90610a20565b80156104b75780601f1061048c576101008083540402835291602001916104b7565b820191906000526020600020905b81548152906001019060200180831161049a57829003601f168201915b5050505050905090565b600180546104ce90610a20565b80601f01602080910402602001604051908101604052809291908181526020018280546104fa90610a20565b80156105475780601f1061051c57610100808354040283529160200191610547565b820191906000526020600020905b81548152906001019060200180831161052a57829003601f168201915b505050505081565b6002805461055c90610a20565b80601f016020809104026020016040519081016040528092919081815260200182805461058890610a20565b80156105d55780601f106105aa576101008083540402835291602001916105d5565b820191906000526020600020905b8154815290600101906020018083116105b857829003601f168201915b505050505081565b6060600080546105ec90610a20565b80601f016020809104026020016040519081016040528092919081815260200182805461061890610a20565b80156106655780601f1061063a57610100808354040283529160200191610665565b820191906000526020600020905b81548152906001019060200180831161064857829003601f168201915b5050505050905090565b60606002805461067e90610a20565b80601f01602080910402602001604051908101604052809291908181526020018280546106aa90610a20565b80156106f75780601f106106cc576101008083540402835291602001916106f7565b820191906000526020600020905b8154815290600101906020018083116106da57829003601f168201915b5050505050905090565b82805461070d90610a20565b90600052602060002090601f01602090048101928261072f5760008555610776565b82601f1061074857805160ff1916838001178555610776565b82800160010185558215610776579182015b8281111561077557825182559160200191906001019061075a565b5b5090506107839190610787565b5090565b5b808211156107a0576000816000905550600101610788565b5090565b6000604051905090565b600080fd5b600080fd5b600080fd5b600080fd5b6000601f19601f8301169050919050565b7f4e487b7100000000000000000000000000000000000000000000000000000000600052604160045260246000fd5b61080b826107c2565b810181811067ffffffffffffffff8211171561082a576108296107d3565b5b80604052505050565b600061083d6107a4565b90506108498282610802565b919050565b600067ffffffffffffffff821115610869576108686107d3565b5b610872826107c2565b9050602081019050919050565b82818337600083830152505050565b60006108a161089c8461084e565b610833565b9050828152602081018484840111156108bd576108bc6107bd565b5b6108c884828561087f565b509392505050565b600082601f8301126108e5576108e46107b8565b5b81356108f584826020860161088e565b91505092915050565b600060208284031215610914576109136107ae565b5b600082013567ffffffffffffffff811115610932576109316107b3565b5b61093e848285016108d0565b91505092915050565b600081519050919050565b600082825260208201905092915050565b60005b83811015610981578082015181840152602081019050610966565b83811115610990576000848401525b50505050565b60006109a182610947565b6109ab8185610952565b93506109bb818560208601610963565b6109c4816107c2565b840191505092915050565b600060208201905081810360008301526109e98184610996565b905092915050565b7f4e487b7100000000000000000000000000000000000000000000000000000000600052602260045260246000fd5b60006002820490506001821680610a3857607f821691505b60208210811415610a4c57610a4b6109f1565b5b5091905056fea264697066735822122068876c18aeb83a7979f6efb4f36fc441e7cc05e244dbb2c67a7bced053d45b4964736f6c634300080b0033",
  "immutableReferences": {},
  "source": "pragma solidity >= 0.8.11 <= 0.8.11;\r\n\r\ncontract Student {\r\n    string public student_data;\r\n    string public credential_data;\r\n    string public access_request;\r\n    string public university_company;\r\n\r\n    //add university or company details\t\r\n    function addUniversityCompany(string memory d) public {\r\n       university_company = d;\t\r\n    }\r\n   //get university or company details\r\n    function getUniversityCompany() public view returns (string memory) {\r\n        return university_company;\r\n    }\r\n\r\n    function enrollStudent(string memory d) public {\r\n       student_data = d;\t\r\n    }\r\n\r\n    function getStudent() public view returns (string memory) {\r\n        return student_data;\r\n    }\r\n\r\n    function setCredentialData(string memory d) public {\r\n       credential_data = d;\t\r\n    }\r\n\r\n    function getCredential() public view returns (string memory) {\r\n        return credential_data;\r\n    }\r\n\r\n   function setAccessRequest(string memory d) public {\r\n       access_request = d;\t\r\n    }\r\n\r\n    function getAccess() public view returns (string memory) {\r\n        return access_request;\r\n    }\t\r\n\r\n\r\n    constructor() public {\r\n        student_data = \"\";\r\n\tcredential_data=\"\";\r\n\taccess_request=\"\";\r\n\tuniversity_company=\"\";\r\n    }\r\n}",
  "sourcePath": "C:\\Users\\Admin\\Desktop\\Blockchain\\hello-eth\\node_modules\\.bin\\contracts\\Student.sol",
  "compiler": {
    "name": "solc",
    "version": "0.8.11+commit.d7f03943.Emscripten.clang"
  },
  "schemaVersion": "3.4.4",
  "updatedAt": "2023-10-28T12:31:25.293Z",
  "networkType": "ethereum",
  "devdoc": {
    "kind": "dev",
    "methods": {},
    "version": 1
  },
  "userdoc": {
    "kind": "user",
    "methods": {},
    "version": 1
  }
}